:1000000000200020512C00007D2C00007D2C0000E1
:100010007D2C00007D2C00007D2C00007D2C00003C
:100020007D2C00007D2C00007D2C00007D2C00002C
:100030007D2C00007D2C00007D2C00007D2C00001C
:10004000DD0A0000C51A0000992B00007D2C00007D
:100050007D2C00007D2C0000E51A00007D2C0000A6
:100060007D2C00007D2C00007D2C00007D2C0000EC
:10007000312000007D2C00007D2C00007D2C000034
:100080007D2C00007D2C00007D2C00007D2C0000CC
:100090007D2C000010B5064C2378002B07D1054BB2
:1000A000002B02D0044800E000BF0123237010BDE4
:1000B0000001002000000000D04D000008B5084BF2
:1000C000002B03D00748084900E000BF0748036839
:1000D000002B03D0064B002B00D0984708BDC0462C
:1000E00000000000D04D000004010020D4000020DA
:1000F00000000000164B002B00D1144B9D464022FF
:1001000092029A1A924600218B460F461348144ACF
:10011000121A03F0F6FB0F4B002B00D098470E4B42
:10012000002B00D098470020002104000D000D484E
:10013000002802D00C4800E000BF03F0B3FB200011
:10014000290000F0B5F803F0A3FAC046000008004B
:10015000002000200000000000000000000100203E
:10016000080500200000000000000000014B0122F3
:100170001A7070472401002008B5002901D101F050
:100180009DFB08BD13B5002951D1294A5078141C94
:1001900003284CD19378002B12D1D178012927D193
:1001A000244C10222260244C2160244CE267244A13
:1001B0001160244A9170D070234A1068009332E095
:1001C000012B13D1D278022A12D11A4C10222260AC
:1001D000194C23601D4CE267194A1160194A91704D
:1001E000D070194A10680091191C1CE0012B1ED810
:1001F000E378042B1BD10F4B10221A600E4B012207
:100200001A600F4A0F4B1168012901D1997003E060
:100210001268002A00D19A700422DA700A4B012178
:100220001868002300930A4A0A4B01F00DFE13BD23
:100230002C010020C4600040280100200060004024
:1002400020010020000000201C010020046000406C
:10025000204E00006D01000008B5002906D1044BB6
:1002600010221970034B1A6001F028FB08BDC0462C
:1002700025010020C860004008B50C48012100F0AD
:1002800075F901F0FBFB04210A1C0520002300F096
:10029000D5FD052002210422002300F0CFFD04211A
:1002A00003200A1C002300F0C9FD08BD00820400E1
:1002B00030B58DB0002103A8242203F022FB2C4B83
:1002C0001B681B0E812B07D82A4A2B4B1A602B4B1D
:1002D0002B4A19680A401A600421112000F0F8FA2C
:1002E00001F064FD274C201C01F03EFD031E00D0F0
:1002F000FEE7206801210093234A244B01F0A4FD6E
:10030000002800D0FEE7224DFFF7B6FF1023EB6771
:10031000204B214C0893214B03A80A93204B0393B5
:10032000204B0B930323637001F06AFA01F0BCFACF
:1003300003A801F0C3FA03A801F090FA1A4B186859
:1003400001280AD119490A78D2B2002A05D10870C9
:1003500003A8211C1A6001F027FB154A1378002B13
:10036000E9D0002313701022EA67124A1360E2E713
:10037000FC81E00F0500000418600C40E4800C4094
:10038000FFFFFFFE1C010020204E00006D01000059
:100390000460004085010000000000202C010020C6
:1003A00059020000790100002801002025010020E9
:1003B000240100202001002070B50B4B0B4AD96BA3
:1003C000DA635A680A4A0B4C801800225D68161CD2
:1003D0008442564107208543281C3043586091428F
:1003E00000D0DA6370BDC04600000C40711B0000F5
:1003F000FFDB0BFFFF23F40008B502F041FCFFF721
:10040000DBFF08BD174BE0225B69D200802113405F
:1004100089008B4217D007D8002B1FD080225200B2
:10042000934219D110481CE0C02189008B4203D0AF
:10043000934211D10D4814E00D4B5B6D1B0E122B36
:100440000ED90C480DE00A4B5B6D1B0E122B01D927
:10045000094806E0094804E0002002E0084800E0FE
:100460000848704700800C40C0D8A700406F40018A
:10047000A881E00F804F120040B56400C0CF6A0031
:10048000809FD50040420F00034B5A6DD10702D424
:100490001A6D0242FCD1704700800C4010B5031C5D
:1004A0000006000F01380C1C062856D802F068FC24
:1004B000045555101D304300FFF79EFF274B013CAC
:1004C00018682749A203041C0C4014431C601AE05E
:1004D000081C02F0AFFC214B1F229968121A0F2052
:1004E0008143081C1043986037E0FFF785FF201C0C
:1004F00002F0A0FC194B1F225968121A0F208143E9
:10050000081C1043586002F01DFCFFF755FF24E063
:10051000144A934221D10420FFF7B6FF201C02F0B9
:1005200089FC0E4B1F22996E121A0F208143081C62
:100530001043986611E00C4A93420ED14020FFF719
:10054000A3FF201C02F076FC044B1F22196F121A25
:1005500003208143081C1043186710BD00800C4025
:10056000FF3FFEFF600610007007140070B5051C09
:100570000005000F01380E1C092829D802F000FCE4
:1005800018080528280B0E1128150020114C11E021
:100590000020114C0EE00120104C0BE01020104CFC
:1005A00008E0802358000F4C04E000200E4C01E0CE
:1005B0000E4C0020ED03ED0E002801D0FFF764FF84
:1005C00023680122AA409343AE401D1C3543256099
:1005D00070BDC04640800C4044800C4058800C40A8
:1005E00060800C4064800C4078800C4008800C4097
:1005F00000B50F2318400138062861D802F0C0FB6F
:10060000061F314360044B0007205EE02F4BDA6A7F
:100610002F4B134080225201934253D003D8042021
:100620008022824007E080220220920193424CD037
:1006300080220A20D204934247D0052045E0234B74
:100640000322986A104002283FD0904214D001281B
:1006500001D1101C39E09B6A0B20DA0335D401204C
:1006600033E01A4A0C23916A0B40082B2CD00C2B38
:1006700002D0042B02D125E0062026E0936A0B204D
:10068000DA0222D4EBE7114B986A30231840102885
:1006900018D020380EE00D4BE020DB6AC002184075
:1006A00080239B0298420DD08023DB02984205D024
:1006B000084BC01843425841013006E0092004E0CD
:1006C000002002E0032000E0022000BD00800C407A
:1006D000003C00040000FFFF10B5041CFFF788FF7A
:1006E0001E4A94420CD01E4B9C420DD01D4B9C4286
:1006F00001D0031C0CE01C4B996A03230B4007E05C
:10070000194B9B6A1B0702E0174B9B6A9B069B0FCA
:100710000020032B20D8181C02F032FB0C02050825
:1007200002F021FB18E002F025FB15E002F00AFBC5
:10073000400811E00B498C4202D0002094420BD1BA
:10074000094B9A6A14238C4200D110230020DA400E
:10075000824201D002F00AFB10BDC04603001A001D
:1007600004001C000200180000800C4008B5F823AB
:100770009B031840E0231B0398424DD010D88023E0
:100780009B0298422ED002D8002857D059E08023EF
:10079000DB02984221D0C0231B03984234D050E0A2
:1007A000C0235B03984220D00ED880235B0398427D
:1007B0001DD0A0235B03984243D12348FFF78CFF51
:1007C000224B1A6F032318E0D0235B03984217D003
:1007D00080239B03984222D033E002F055FA1B4B52
:1007E0009A6809E002F0AEFA2CE0194809E01848CE
:1007F000FFF772FF154B9A6E0F231340D84021E08C
:100800001148FFF769FF1DE01248FFF7F1FE0728C6
:1008100002D0082815D111E0FFF7F4FD12E00E48D0
:10082000FFF7E6FE032806D0082807D0022808D1E3
:1008300002F0A0FA06E002F096FA03E002F024FAD1
:1008400000E0002008BDC04603001A0000800C40F4
:100850000200180006000C000733200038B50528F8
:1008600030D802F08DFA0F0B1B030715012302206D
:100870001C1C16E020201023052412E080204023B9
:1008800007240EE08020802380005B00092408E01C
:10089000802080230001DB00162402E008200423CE
:1008A0000324094D00290AD02B62002A08D0012315
:1008B000A3401C1C054B1B682342FBD000E02862B0
:1008C00000F066FA38BDC04600800C402C800C4019
:1008D00038B50F250540681E0C1C062800D9ACE071
:1008E00002F04EFA042B2B66ABAB8200881E082860
:1008F00000D9A2E002F044FA0510080AA1A1A1A1C2
:100900000D000020042409E0022003E0032001245C
:1009100004E00520041C01E00120032401210A1C3D
:10092000FFF79CFFFFF768FD444B5C6200F030FA74
:1009300002F008FAFFF740FD7FE0481E0A287CD845
:1009400002F01EFA0608107B7B187B7B7B7B200065
:10095000002318E001210A1C0020FFF77FFF00237D
:10096000022211E00120021C011CFFF777FF002387
:10097000012209E0324B042219680A431A6000235D
:10098000032201E0012300222C49022D07D18C6AA9
:100990002C481B04204002431A438A624DE0920017
:1009A0001B05886A1343284A104003438B6244E0C6
:1009B000022905D0032909D001293ED100240BE0EA
:1009C000012100200A1CFFF749FF05E00120011C5E
:1009D000021CFFF743FF0124184B30219A6A2401BF
:1009E0008A4314439C6228E003290FD0092919D0B7
:1009F000022922D101210A1C0020FFF72FFF0F4BF3
:100A000040225A62DA6AD103FCD516E00120021CAA
:100A1000011CFFF723FF094B60225A62DA6A910337
:100A2000FCD50AE001210A1C0520FFF717FF034B44
:100A300080225A62DA6A5103FCD538BD00800C402E
:100A400040800C40FCFFFEFFF3FFEFFFF7B50C1CEE
:100A5000204905018F680193EF19099E3B1C002A6C
:100A600001D1CB68EB18FF68002F00D03A72002E3E
:100A70000AD09F683F01BF0F032F01D11E6003E022
:100A80000A9DBD4077191F60089F002F0AD09E68FD
:100A9000B60F032E01D15F6004E00A9D089FB540A8
:100AA0007D195D6001258540281C019D002D01D028
:100AB000886100E0C861002A01D0486300E0086353
:100AC0009968054A0A9F114021433A010C1C1443BE
:100AD0009C60F7BD00200C4008C0FFFFF7B51A4F1F
:100AE00080235B01FA58194B0226FB581A400092EA
:100AF000BA6B009B151C01921D400024002D1CD0D8
:100B00000122154216D0124B101CB968A040F850B3
:100B10002301CB18DB68002B0CD0197A4A401A72DB
:100B20001A689446002A05D04A1E9141C9B25A68F3
:100B3000201CE0476D080134E0E7009D019B013E69
:100B40009D43002ED9D1F7BD00200C400C100000B1
:100B5000081000007FB50093089B0E1C0193099BB1
:100B6000151C029301212B1C321C041CFFF76EFF85
:100B70000123A3401C1C014B9C627FBD00200C4044
:100B8000F0B585B01E1C0B9B0D1C00930C9B171C15
:100B900001930D9B0321029300222B1C041CFFF7E1
:100BA00055FF0A9B201C029300972B1C01960321E2
:100BB0000122FFF74BFF0123A3401C1C014B9C6249
:100BC00005B0F0BD00200C4010B5154B02019C682B
:100BD000A2188C68D4600C7801228240002C01D0CD
:100BE0009A6300E0DA638824E40002194C689200FA
:100BF0009C50497801220B4B002909D08240101CDF
:100C00000749094A88501A6882431043186005E072
:100C100019688240101C0A1C82431A6010BDC0462D
:100C200000200C400C300C400810000030B50D4C7A
:100C3000002901D0A36800E0E368D4781179A40307
:100C400000018904181821439378147852781D07FD
:100C5000A4072C43920614431A06231C13430B4388
:100C6000836030BD00200C40F0B507AC247803272A
:100C7000002C00D00127194C0501002901D0A168E2
:100C800000E0E1686918059D002D0DD08D682D01EB
:100C9000AD0F032D01D1059E05E0069EAE40059DDA
:100CA000B4462E1C66440E60002B07D08E68B60F2B
:100CB000032E02D0069DB5405B194B600123834093
:100CC000002A01D0A36100E0E3618A68069E044B1C
:100CD000350113401D432F438F60F0BD00200C40B1
:100CE00008C0FFFF0F4B0120D8670F4B00223F21A8
:100CF0005A60D9615962D9625963D9630B49D86482
:100D00005A500B480B495850882149015A500A49FA
:100D10005A500A495A500A495A500A495A500A49DF
:100D20005A50704704E100E000200C400C10000015
:100D30003F000080081000000411000008110000AE
:100D40000C110000101100001411000010B5012159
:100D5000041C0B48FFF70AFCFFF7C4FF0122094BF4
:100D6000C02191405A5080201A600749074B000665
:100D7000585061689960217849010A435A6010BD52
:100D80000013020000E100E00C10000000200C4005
:100D9000024BDA6A024B1A607047C04600800C4072
:100DA0006C010020F7B508AA167809AA12780192FA
:100DB00007290BD81B4A8C0017680725A540A040BF
:100DC000AF43041C381C204310600CE0164C0A1C76
:100DD000083A92002768072595409040AF43021CCF
:100DE000381C10432060114C012027688840C24302
:100DF0001740BC461F1C8F4063463B4323600C4B8F
:100E0000341C1F688C4017403E1C26431E60094B53
:100E10001862094B186802400198884002431A6022
:100E2000F7BDC04600610040046100400861004019
:100E30000C610040FC60004010610040F0B5002AE9
:100E40000CD0012524248D404443002B03D01B4E9D
:100E5000A419256102E01A4EA419656024244443B4
:100E600007290CD8154D0F26641967688D00AE4010
:100E7000B743161CAE403D1C354365600DE00F4E78
:100E8000A419104EA7688D19AD000F26AE40B743C8
:100E9000161CAE403D1C3543A560002A0CD1012430
:100EA00024228C404243002B03D0044BD2181461FF
:100EB00002E0034D52195460F0BDC046006000408E
:100EC00010600040F8FFFF3F002804D0012805D142
:100ED000034BD86803E0024B986800E0002070479D
:100EE00000000840002803D0012803D1024B00E095
:100EF000024B19607047C0460C00084008000840CB
:100F0000034B01211A688A43104318607047C0469A
:100F10000000084042780378002A01D002221343DF
:100F20008278002A01D004221343014A13607047DB
:100F30000000084008B50020FFF7E2FF0120FFF79E
:100F4000DFFF08BD30B50B78002B01D102224260D3
:100F500000228C784262CA782406120422430C7A5A
:100F600022438C79A4022243CC79240222434C7878
:100F7000651EAC41A40122434C7A651EAC41E401DC
:100F800022438C7A651EAC4164012243CC7A651EF3
:100F9000AC41240122430C79651EAC416403224319
:100FA0004C79097B651EAC41240722434C1EA141AC
:100FB000C9000A430260002B01D00123436030BD09
:100FC00030B514785378A4061B0623439479033173
:100FD00023439478090124042343D478240323432E
:100FE0001479A4022343547924022343D479651E3F
:100FF000AC4164052343147A651EAC4124052343A8
:10100000547A927A651EAC4124012343541EA241B6
:10101000920013430B5030BD38B5041C151C081E3C
:1010200002D10948FFF7A2FB6B1E40001818291CCB
:1010300001F0B0FE054B8001403862691840044B56
:1010400013401843606138BD4081040000FF1F0059
:101050003F00E0FF0A4B0B4AC3600023036042607D
:10106000094A83604361C3648264084A43659042CD
:1010700000D103658365904201D10023C3657047A9
:10108000AA0E000005100000F91F000000C000407B
:1010900038B50D1C041CFFF7DDFF2B8A012213431A
:1010A000AA7B2168501E824192020B4313432360A6
:1010B0002B7D2268591E8B415B0713432360AB7C59
:1010C000002B03D0EB7C10221343A3652A7B8023E3
:1010D0005B0113436360201C6968AA68FFF79CFFEB
:1010E0006B7B002B01D01023E3602B78E36038BDCD
:1010F00072B6044B1A68511C01D001321A6018688C
:101100007047C04670010020054B00201A688242DB
:1011100004D0501E1860002800D162B67047C04647
:101120007001002010B514234343054AD3181C68EE
:10113000002C04D099685A6801319960A04710BD0D
:101140007401002030B585B0142444430E4B0D1CAF
:101150001C192368002B08D0A16862680131A160C6
:10116000984701235840C0B200E0012000230093BB
:10117000E268291C013A019202901A1C181CFFF720
:1011800073FD05B030BDC04674010020F0B58DB0D0
:10119000141C15AA177817AA15785E4A04901278BD
:1011A0000591002A00D1B0E0032C00D9AFE01298DD
:1011B000002800D1ABE01399002900D1A7E01698D0
:1011C0008022D200904200DDA1E00499012903D1E0
:1011D000149A002A00D19AE0142666434E4A9619C2
:1011E000327C002A00D18EE004980C214B4A6143E6
:1011F000002801D14A4800E04A4850500C21614380
:1012000052180021516009AA11701899002902D1C1
:101210000498012801D1012100E018990A930C23B8
:10122000634351703D4A201CD31809A90B93FFF763
:10123000CBFC059807AB032200280DD1002F06D068
:10124000002D02D00222012D01D15D7000E05A7004
:10125000032207AB1A700CE0002F06D0002D02D03D
:101260000222012D01D11D7000E01A70032207AB8C
:101270005A7007AFBD7001210025201C3A1CFD707B
:101280003D71FFF7D3FC0499012904D1201C291CCE
:101290003A1CFFF7CBFC189A199B16980121326073
:1012A0007360F060204B214A081C0025A040B56007
:1012B000D050169B049A013BAA4208D1139801937F
:1012C0000090129B201CFFF745FC049820E0059934
:1012D000009300290AD11498129A02900393201CBB
:1012E0000192139BFFF74CFC059811E01399149A97
:1012F000019102920393201C291C129A149BFFF760
:101300003FFC281C04E00A4802E00A4800E00A48C2
:101310000DB0F0BDC401002074010020C801002000
:1013200025110000451100000810000000200C40AD
:10133000078000F0028000F0018000F038B5124B09
:10134000051C1B78002B1AD000281AD0FFF7D0FEFE
:101350000023142159430D4A5018047C002C07D156
:101360002B60012303748C50FFF7CEFE201C09E094
:101370000133042BEDD1FFF7C7FE054802E0054815
:1013800000E0054838BDC046C401002074010020BB
:10139000048000F0028000F0018000F013B5FFF738
:1013A000A7FE124B1C78002C03D0FFF7ADFE1048AF
:1013B0001BE001221A70FFF7A7FE0E4BFF205A1DFB
:1013C000D4771A1C1C7438324C331C701470C02330
:1013D000094A9B00D1588143D1506B461C70074B82
:1013E00068460193FFF7B2FC201C16BDC401002023
:1013F000038000F07401002000E100E00004002000
:1014000070B588B00C1C0CA90E780EA9051C0878C4
:1014100001930D9B002104930F9B00920693109B58
:101420000590079302910396081C2A1C231CFFF7C2
:10143000ADFE08B070BD70B588B00C1C0CA90E785C
:101440000EA9097801930D9B051C04930F9B0020A6
:101450000693109B00920591079302900396012139
:101460002A1C231CFFF792FE08B070BD08B501F0DE
:10147000C3FA00F079F90A2001F056FB00F07AF97E
:10148000642001F051FB00F011F901F031FB08BDBF
:1014900013B531236C462370130A6070A170E3709A
:1014A00007200023694622716371A37100F0AAF836
:1014B00013BDF7B508AC6F46257809AC2478B97030
:1014C000110A7870F9703226082069463E703A7128
:1014D0007B71BD71FC7100F095F8F7BD37B56D46B5
:1014E0001C1C20232B706870A970EA7004206946C8
:1014F00008226B4600F0E0F8002C0FD02B78237008
:101500006B786370AB78A370EB78E3702B79237101
:101510006B796371AB79A371EB79E37137BD07B573
:1015200001A93423487002200B7000F06BF807BD4E
:1015300037B501AC1523607002200D1C2370211CEF
:10154000021C231C00F0B8F8002D03D023782B7068
:1015500063786B7037BD08B5021C0B1C6620002138
:1015600000F086F808BD08B5021C0B1C772000218E
:1015700000F060F808BD37B5332301AC051C2370BB
:101580000120211C0222231C00F096F8002D03D01C
:1015900023782B7063786B7037BD0000F7B5144D5E
:1015A000061C0F1C6C4600F0EBF80734442000F0DA
:1015B000FBF8201C00F004F92378FF2B08D1002E43
:1015C00003D0301C391C00F00DF900F0DFF805E005
:1015D000013DADB200F0DAF8002DE3D12078FF280C
:1015E00003D1044B01221A7000E00020FEBDC0466A
:1015F00010270000F801002008B50020011CFFF7AB
:10160000CDFF08BD70B5061C0D1C094C2378002BBE
:1016100002D1FFF7F1FFF8E700F0B2F8301C291C07
:1016200000F0D8F800F0B2F80023237070BDC04677
:10163000F8010020F8B50D4C051C161C1F1C0029D4
:101640000DD100F09DF8281C00F0AEF8301C391CBC
:1016500000F0C8F800F09AF800232370F8BD237852
:10166000002BEED1FFF7C8FFF9E7C046F8010020D4
:10167000F8B50D4C051C161C1F1C00290DD100F0DF
:101680007FF8281C00F090F8301C391C00F0A2F8FC
:1016900000F07CF800232370F8BD2378002BEED1F6
:1016A000FFF7AAFFF9E7C046F8010020014B00222E
:1016B0001A707047F801002038B5151C1C1CFFF784
:1016C000A1FF281C211CFFF769FF38BD10B5041EBF
:1016D00011D08B781A070CD50320FFF720FF0220CA
:1016E0000021FFF725FF236A002B02D0201C0021D8
:1016F0009847002000E0014810BDC046019000F06E
:1017000013B50021041C042202200123FFF796FBDD
:101710000020031C02210422FFF790FB0220042179
:10172000021C0123FFF78AFB002C0CD00420211C93
:1017300000F0B0F9012304210093019302200A1C58
:101740000023FFF72FFB13BD08B50449044B0548E0
:101750008B600123CB7500F089FE08BD400000209E
:1017600000127A00FC010020014B04221A6170472C
:1017700000600040014B04225A6170470060004045
:10178000014B0122DA65704700600040014B0122E5
:101790009A65704700600040024B1868C006C00F91
:1017A0007047C0466460004007B56946073108705D
:1017B0000122024800F02EFF07BDC046FC010020B8
:1017C00008B50122011C024800F008FF08BDC04610
:1017D000FC01002008B5021C014800F01BFF08BDF9
:1017E000FC01002008B5021C014800F0F7FE08BD0E
:1017F000FC010020014B01221A70704750020020AA
:1018000008B512480121FFF77BFFFFF79DFFFFF7A7
:101810002DFE01F0F1F80E4801F086F901F068F9AB
:101820000C4801F0CFF9031E0AD00B4802F0C6F8AD
:1018300001F0E2F8064801F077F901F059F9E6E71E
:10184000191C1A1CFFF74AFE08BDC046F517000018
:101850001027000070450000AA48000030B585B090
:10186000051E18D00E4B00241A78A24214D0221C58
:101870001C70201C6B46211CFFF730FE6946281C9B
:1018800000F0D0F86946281C00F026F8281C6946AC
:10189000FFF71CFF00E0034C201C05B030BDC04624
:1018A00050020020019000F008B502200021FFF74F
:1018B0003FFE01200021FFF73BFE08BD07B50323D3
:1018C000007E00210093082301930A1C0B1CFFF7E4
:1018D000F0FD00200EBD000030B585B0041E20D004
:1018E0008D7810231D4017D000206946FFF720FE99
:1018F0006B461878E169FFF736FE6369002B02D06A
:10190000201C0021984702200021FFF711FE201C17
:10191000FFF7D4FF002005E00220291CFFF708FE96
:10192000F8E7014805B030BD019000F0F0B589B08E
:1019300000930EAB1B78041C01930FAB1D7810AB0A
:101940001F7811AB029103921E78002822D004A8C0
:10195000FFF711FE6A46137C072B1DD0029B002B5C
:101960000DD0039A26732271BE19019A009BA572AD
:10197000AD1955195D1923726272E772E580A0797D
:101980001299FFF7E8FDA07B30210022FFF780FDD0
:10199000002002E0024800E0024809B0F0BDC04665
:1019A000019000F0019100F070B58AB007AD041C01
:1019B0000E1C281C19490A2201F09AFF002C29D07C
:1019C0002379002B01D0012117E0E288082AFAD1FF
:1019D00008A802706A46213213702189AA888A42B7
:1019E000F1D1694622310B704B706289EB889342CA
:1019F000E9D1217B4B1E9941C9B200250095019583
:101A0000029503950496201C2A1C0823FFF78EFFDD
:101A1000281C00E002480AB070BDC046CE48000055
:101A2000019000F010B5002809D08B7800249A06A8
:101A300006D50368A34203D0211C984700E0014C5F
:101A4000201C10BD019000F010B5041C002C12D019
:101A5000221C002301210A4203D101335208202B0A
:101A6000F8D19940044A8C4399008A58002AEDD055
:101A7000D8B29047EAE710BD54020020044BC021C1
:101A8000490040225A501A6002225A501A60704788
:101A900000E100E010B572B6084B1A68541C01D082
:101AA00001321A60064A800081501A68002A04D068
:101AB000013A1A60002A00D162B610BD7001002000
:101AC0005402002008B5054B5A6998691040044A31
:101AD00010401862FFF7B8FF08BDC046FC60004028
:101AE0005555000008B5054B5A6998691040044ADD
:101AF00010401862FFF7A8FF08BDC046FC60004018
:101B0000AAAA000000207047FEE780239B01002066
:101B10004B6070470120704700207047F8B50D1CDE
:101B20008F180C1C661BBC4203D000F043F8431C0A
:101B300004D1301E05D10120404202E02070013462
:101B4000F0E7F8BD70B50E1C151C0C1CA31BAB42B6
:101B500004DA207800F032F80134F7E7281C70BD71
:101B600038B5104B1A68002A01D10F4A1A601A685A
:101B70001018EFF30881884211D90C4B1B68986844
:101B800001F09CFD0A4C051C201C01F08FFF211C5C
:101B9000021C281CFFF7D6FF012001F079FD186018
:101BA000101C38BD9402002008050020C800002049
:101BB000D8480000012040427047000010B5064B95
:101BC000041C1868002804D0211C00F091FE201C81
:101BD00001E00120404210BD9802002072B6044B83
:101BE0001A68511C01D001321A6018687047C0464B
:101BF00070010020054B00201A68824204D0501E5C
:101C00001860002800D162B67047C04670010020FD
:101C1000F7B525490190081C14300B7F002294462B
:101C20004A7793423AD00A684B68019C65466345FF
:101C300001D1A24204D9121BAB410A604B602DE0D6
:101C4000CE7F002E01D10E7723E08E68CF689219E7
:101C50007B41121BAB410A604B60031F1B6802688B
:101C6000002B06DD9B180360F32B12D90122002301
:101C700006E0D31A0360F32B0BD901225242D3178B
:101C80000E684F6892197B410A604B600368F43B11
:101C900003608F69002F01D001234B77034A28315D
:101CA00028309142B9D1F7BDA002002040030020A6
:101CB00010B5002428236343064AD3185A7F002A0C
:101CC00003D0196A201C9B6998470134042CF1D178
:101CD00010BDC046A0020020F8B51D4B01241E1CFB
:101CE0006442A036221C197F002908D059681D685B
:101CF0008A4202D803D1AC4201D92C1C0A1C2833D9
:101D0000B342F0D1134E00233370631C01D1531C36
:101D10001DD0002A02D1104B9C4200D90E4C0F4B13
:101D20001A780F4B002A03D10202120A1A6000E04F
:101D300018600C4D041902272102AF61090A002026
:101D4000FFF7D0F801233370EB691F43EF61F8BD53
:101D5000A00200209C0200209BFFFF009E020020AA
:101D6000440300200000084038B5051CFFF736FF8B
:101D7000002328225A430A498A18947F002C04D051
:101D80000133042BF5D1074C06E0002D03D00121CF
:101D900091772B6000E0044CFFF72CFF201C38BD2E
:101DA000A0020020011000F0041000F038B51A4B1A
:101DB0001C78002C2ED101251848291C1D70FEF717
:101DC000D5FB17480221FEF783FD16480821FEF7D0
:101DD00065FB291C1348FEF7C9FB1348FFF79AF867
:101DE000124B0722D9699143D9619A61FFF7A2F892
:101DF0000F4B8022C0215201A9405A500D481A6051
:101E0000211CA02201F07DFD0B4B1C700B4B1C70A4
:101E10000B4B1C60002038BD9D02002000230200F7
:101E20000200180060061000F248000000000840A0
:101E300000E100E0A00200209E0200209C020020A1
:101E40004003002000000000F0B585B00190039130
:101E5000151C1F1C032800D9CAE0FFF7BFFE01991B
:101E600028244C43684B1C19A37F002B03D1FFF798
:101E7000C1FE6648BDE0002D08D1002F02D00198B8
:101E80000A99B847FFF7B6FE0020B2E0604E6B0C2F
:101E900072685A4958480292EA0380185941A7616A
:101EA000574A584B00F0E4FF039BA060E160012B10
:101EB00009D1FA239B005D43F42358437A232D1A5A
:101EC0002561636106E001225242D317801859410F
:101ED000A060E160019C282161434B48012200235E
:101EE00041188C68CD6812196B410A604B60494BF0
:101EF000039D0A9C1B7801220A77CD770C62071C90
:101F0000002BBFD1444C2368013302D023689B18B7
:101F10002360424B1A78002A20D1029D28202A02F1
:101F2000019D3F4B6843120A1A603F180223B361B8
:101F30000ACF002B02D13B4B994200D93949029D6F
:101F4000002069180902090AFEF7CCFFF369022292
:101F50001343324DF36101232B7041E02368012BC1
:101F60003ED1019D28226A430023BA1813770393B8
:101F7000F369022293432A4DF3612A680299881A71
:101F800000022949000A43185A1E93415B42184037
:101F9000FFF73EFEFFF78CFE039A002A05D1019958
:101FA00028234B430122FB181A77039A0298013227
:101FB0000392FFF791FE7368296802935B1A1B0274
:101FC0001B0A00200093FEF77FFF2B68134DC01AF9
:101FD0002B780002000A002B02D0009D8542C7D852
:101FE0002368002B00D14DE72368013B236049E7BC
:101FF0000E4805B0F0BDC046A00F00000000000074
:10200000401F000000000000A0020020031000F0AC
:10201000000008409E020020400300209C02002097
:10202000440300209BFFFF00010000FF021000F0AE
:10203000F8B5194DFFF7D2FD2B699A0728D5174B34
:1020400001226C681A70EB6902229343144EEB6113
:102050003368E01A0002000AFFF7DAFDFFF728FEF6
:10206000201CFFF739FE6C6832680020A71AFEF7C3
:102070002BFF33683F02C01A0A4B00021B783F0A4D
:10208000000A002B01D08742DDD8044A00231370D8
:10209000FFF7B0FDF8BDC046000008409E020020DA
:1020A000440300209C02002072B6044B1A68511CA5
:1020B00001D001321A6018687047C04670010020D4
:1020C000054B00201A68824204D0501E1860002878
:1020D00000D162B67047C046700100200123416400
:1020E00050300370704710B5141CFFF7DDFF231C40
:1020F0000021483361641970E36AA1638B4202D006
:10210000626B201C9847FFF7DBFF012010BD000029
:10211000F7B5019102687A49051C03798A4244D1D6
:10212000002B09D0012B09D0022B0BD0032B0BD095
:10213000042B0CD10122D9E004220FE001225242EB
:10214000171C0CE01A1C00E00422022707E0012201
:102150005242052B00D1C9E0062BF1D10427EF63D1
:10216000002B0BD0012B50D0022B0CD0032B0FD007
:10217000042B11D10D240826072114E00C240B2672
:102180000A210D2346E009240A260B21082341E0F9
:102190000F240C260D2106E0052B00D0A8E0012617
:1021A00076420D24311C0E2334E056498A4200D079
:1021B0009AE0012B09D9022B03D0052B05D102226D
:1021C00005E0012703227F4202E001225242171C50
:1021D000EF63012B19D9022B12D0032B15D0052B3D
:1021E00003D103240226012105E0042B0DD0012494
:1021F0006442261C211C053B581E83415B4209E0BA
:10220000012464420626072103E001246442261CBF
:10221000211C231C2B64019BD2B20092FFB2002B25
:1022200041D02B7D0193002B1ED1101C0422FEF700
:1022300005FE0098311C0222019BFEF7FFFDAB7DDD
:10224000381C211C0422012B01D8019B00E0012332
:10225000FEF7F4FDEC7D002C01D000204FE0EB6B8D
:10226000296CD8B204221CE0009802220023FEF759
:10227000E5FD0098311C04220023FEF7DFFDAB7D55
:10228000381C211C0222012B01D8002300E001236D
:10229000FEF7D4FDEC7D002CDFD1EB6B296CD8B2BE
:1022A000022201231DE000980222019BFEF7C6FDD9
:1022B0000098311C0222019BFEF7C0FDAB7D381C4B
:1022C000211C0222012B01D8019B00E00123FEF713
:1022D000B5FDEC7D002CC0D1EB6B296CD8B2221C73
:1022E000231CFEF7ABFDB8E7074808E0012736E7F7
:1022F000062B8AD1012676420C24311C41E7FEBD13
:1023000000C0004000C40040022000F0F0B587B0DB
:10231000161C021C5032002515700768C0221201DD
:102320004663FA60C268041C8C46C362082A1ED940
:102330003B1C24333C370125012200920E4AA16A3E
:1023400003920196624602950494206AFFF773F89F
:102350000022231C009203920492E069616A103308
:10236000019602953A1CFFF74BF807B0F0BD3B1CF5
:102370001C333437E0E7C046E7200000F0B589B0F1
:102380000791011C151C503100220A700768C021FA
:1023900009014563F960C362C368041C082B1FD997
:1023A0003B1C3C3706972433012710490026221C8A
:1023B00003913032A16A0096019502970494206A35
:1023C000FFF739F801230093E069616A01950297EC
:1023D00003960496069A079BFFF712F809B0F0BD22
:1023E0003B1C343706971C33171CDEE7E720000040
:1023F00038B5041E18D0002918D0002A16D0802322
:10240000DB009A4212DCFFF74FFEA56CEDB2002D07
:1024100003D0FFF755FE064809E001234834237036
:10242000FFF74EFE281C02E0024800E0024838BDDB
:10243000032000F0012000F0022000F010B5041C81
:10244000FFF732FE012809D9236DDBB2002B02D140
:10245000FEF744FBF8E7FFF733FE05E0FFF730FE39
:10246000236DDBB2002BFBD010BD0000F0B587B0B0
:102470004C4A6B46041C0D1C83CA83C36E4683CA38
:1024800083C3002C00D18AE0002D01D1464887E0AB
:102490005422201C002101F034FA2B68434A934255
:1024A00005D1434BE364434B6362C02307E0424AD8
:1024B0009342EBD1414BE364414B6362D0231B0356
:1024C000A3622A1C231C83CA83C383CA83C31268E2
:1024D0001A606B7D012B00D1B373AB7D002B0CD048
:1024E000012B01D1802307E0022B02D180235B0066
:1024F00003E0032BCAD1C0239B0033822B7D012B29
:1025000005D100237373FA239B00B36001E0A86830
:10251000B0602C480121FEF729F82B480121FEF775
:1025200025F8E06C0121FEF721F869462868FEF7DE
:10253000AFFD264A69692B68114204D119688022CF
:1025400052020A431A602A79E97D1202002901D158
:102550000F2100E00B210A435A65201C0121FFF7DF
:10256000D7FD00281CD1FFF79FFD194B1A78002AD0
:1025700001D101221A70FFF7A3FDFEF70FFF201C07
:1025800000211C30FEF7DAFE011E01D0114807E0E1
:10259000201C2030FEF7D2FE0028F7D100E00E48C4
:1025A00007B0F0BDF8480000022000F000C0004075
:1025B0000032040001000C0000C40040004204008E
:1025C00001000D004081040000820400FF0000FFB4
:1025D00048030020092000F0012000F070B5037DC1
:1025E000041C0E1C151C012B0ED0FFF701FF002848
:1025F0000BD1201C311C2A1C044BFFF787FE201C2A
:10260000FFF71CFF606C00E0014870BDDD2000009A
:10261000082000F070B5037D041C0E1C151C012B56
:102620000ED0FFF7E5FE00280BD1201C311C2A1C20
:10263000044BFFF7A3FE201CFFF700FF606C00E0D7
:10264000014870BDDD200000082000F010B5436C8B
:10265000041C002B0BD0036B426B00215A43006C0F
:1026600001F04FF90023E36423655434237010BD57
:10267000F0B587B08F00C56B041C05910497002648
:102680000022216B207D8A4232D2616C049FC0B24D
:10269000CB592F499B5C8919C95C002803D00128BC
:1026A00024D1C943C9B206235343981D039003980C
:1026B00083421BD0DF1002970727BC46029F0120F0
:1026C000EF19029767461F40014204D0B840029FAD
:1026D0003F78384305E0B840029F84463878674623
:1026E000B843029F490838700133E0E70132C8E778
:1026F000012815D106235A430723134008D0D110CF
:1027000069180F7898400138384008320870D21A9A
:10271000A368D0109A1A2818D208FF2101F0F1F806
:10272000E7686436FB08ED18C8239B009E42A7D1DA
:10273000226B059D06235343EA00E16B00920822B9
:102740000192201D0022646AA04707B0F0BDC04678
:102750001049000073B5031C54331B78041C012B73
:1027600036D0002B03D00020022B3AD138E0457D33
:10277000002D35D1636B9D4205D2291C201CFFF72B
:1027800077FF0135F6E72269DB00934220D2217DF5
:10279000002906D0012923D1A668E06BF208FF21A9
:1027A00002E0A368E06BDA0801F0ABF8626BD500D9
:1027B000226995420CD201230193201D0095E16B03
:1027C0000022A368666AB04700280AD10135EFE706
:1027D000637D002B04D1216D201CFFF749FF00E031
:1027E000004876BD0400128038B50025041C616BDA
:1027F000636C481E226B854207D2A90058585B18AB
:102800005968013501F074F8F1E7074809188900A3
:102810005858002101F075F8626B0023013AE36417
:1028200022655434237038BDFFFFFF3F38B5041CC8
:102830000D1E0A2D06D00D2902D0082927D117E038
:10284000002350E0036D0022C264426B0133036534
:10285000934249D3031C38331B78002B05D0FFF774
:10286000C3FF636B013B23653EE0FFF7EFFE3BE0F8
:10287000037D012B0BD9031C49331A784A34FF2AF4
:1028800001D1002200E0FF221A7022702CE0174BC9
:1028900068221B685B195B78934300D12025E36CA9
:1028A000226B934204D30023E364236D0133236539
:1028B000236D626B93420DD3231C38331B78201C8D
:1028C000002B05D0FFF790FF636B013B236501E010
:1028D000FFF7BCFE226D203D9300626C9B58E26CBA
:1028E0009D54E36C0133E36438BDC04664000020AE
:1028F00070B5031C55331B78041C0E1C002B3CD0F8
:10290000437D051C5435002B01D1012300E0022337
:102910002B70231C38331A78E36C002A09D0002B63
:102920000CD1636B226D013B9A4207D100232B70BF
:1029300004E0002B02D1236D002BF7D00C2E05D123
:10294000201CFFF783FE00232B7012E0231C393379
:102950001B78002B05D00A2E03D1201C0D21FFF778
:1029600065FF201C311CFFF761FF2B780020032B33
:1029700004D0201CFFF7EEFE00E0014870BDC04609
:102980000600128010B572B6164A1368591C01D0A1
:10299000013313601449154B09685C6A884200D200
:1029A000081C0019102158639961D8680143D96047
:1029B0001168002904D001391160002900D162B6E4
:1029C0000B4A1178002906D10A4A04201169814373
:1029D000116130BFF4E700211170DA6810218A43D9
:1029E000DA6010BD700100204C030020000001409F
:1029F0005403002000ED00E070B588B004AC01AED7
:102A000000210D22201C00F07CFF01250B2200215B
:102A1000301C257000F075FF0223291C2848B37173
:102A2000284DFDF7A3FD284B281CEB610021321C2B
:102A3000FEF7C6FA0023A3702248211CFEF782FA93
:102A40002248FDF793FEA378214ED8400133DBB234
:102A50003060A3700A2B02D81E4B9842ECD81E4857
:102A6000FDF784FE0024011C1C4800F093F9326835
:102A7000231C211C00F01CFA0E4B0D4A80185941F2
:102A80000D4A0E4B00F0F4F9154B10221860154B4F
:102A9000C0211C70EB6849009343EB60124B042289
:102AA000201C5A501A6008B070BDC046C046C046CF
:102AB00020A107000000000040420F0000000000BD
:102AC0000002040000000140FFFF000040810400FC
:102AD0005003002080841E005000020000B0710BE3
:102AE0004C0300205403002000E100E0C046C04633
:102AF00010B50A4A0421131DD967094B1020DC6860
:102B00008443DC609861C0204000115002225A606A
:102B100004480021FDF72AFD002010BD00E100E07F
:102B2000000001400002040038B5194B00211A686A
:102B30000B1C00F0BDF9114B0F4A80185941104A87
:102B4000104B00F095F9041C0D1C002D07D0114806
:102B5000FFF718FF0C4A0D4BA4185D41F5E70D4B2C
:102B60009C42F4D8A0B2002801D0FFF70BFF002050
:102B700038BDC046C046C04620A107000000000086
:102B800040420F00000000001802FFFFFFFFFFFFA0
:102B900050030020E8FD0000044B10221969114287
:102BA00003D09A61024B01221A7070470000014065
:102BB0005403002008B5021C0B1C66200121FEF7FF
:102BC00057FD08BD30B58BB0041C207800283DD0DF
:102BD00010280ED96378662B01D0042036E08028B7
:102BE000FBD80234451E211CE8B2FFF7E3FF64194D
:102BF000EBE7621C0023E118497802AD5955013317
:102C0000D9B28142F7D3441EE4B201346B461419A1
:102C1000291C01220733FEF74FFDFF2815D12B7821
:102C2000192B05D106AB1B78013BDBB2012BD4D9A4
:102C3000FEF7B2FD021EC8D106AD2B1C111CFEF71B
:102C40004DFCAB791A07C0D5C7E702200BB030BDE9
:102C5000064880470649074A074B9B1A03DD043B99
:102C6000C858D050FBDCFDF745FA0000652D000088
:102C7000DC4D000000000020D8000020FEE7C04628
:102C80000048704700366E0108B5244A244BD16ACB
:102C90000B40802149018B420FD005D880210901CA
:102CA0008B4210D11F4B0CE0802189018B4207D051
:102CB0008021C9048B4227D005E08020000226E055
:102CC000194B186823E0D168E023DB000B4080211A
:102CD00089008B4212D007D8002B11D080214900E7
:102CE0008B420FD1114812E0C02189008B420DD0D8
:102CF0008021C9008B4205D10D4808E00D4806E04F
:102D00000D4804E0002002E00C4800E00C48116887
:102D1000C903490F013100F03DF808BD00800C40A7
:102D2000003C0004600000205C00002040B564000E
:102D3000406F4001C0D8A700804F120000366E01DE
:102D4000809FD50008B5FFF79FFF044B5A680F23FB
:102D50001340D840024B186008BDC04600800C40AC
:102D6000000500207047802000027047FA20800094
:102D700070470000014B18687047C0465C00002097
:102D800002B4714649084900095C49008E4402BCFE
:102D90007047C046002934D00123002210B4884275
:102DA0002CD301242407A14204D2814202D209017A
:102DB0001B01F8E7E400A14204D2814202D249009B
:102DC0005B00F8E7884201D3401A1A434C08A0423E
:102DD00002D3001B5C0822438C08A04202D3001BD4
:102DE0009C082243CC08A04202D3001BDC082243EB
:102DF000002803D01B0901D00909E3E7101C10BC0F
:102E00007047002801D00020C04307B4024802A147
:102E10004018029003BDC046190000000029F0D000
:102E200003B5FFF7B9FF0EBC4243891A1847C046E5
:102E30007047C0461C2101231B04984201D3000C9B
:102E400010391B0A984201D3000A08391B0998421D
:102E500001D30009043902A2105C40187047C04633
:102E60000403020201010101000000000000000053
:102E7000002B11D1002A0FD1002900D1002802D047
:102E80000021C943081C07B4024802A1401802905F
:102E900003BDC0469DFFFFFF03B4684601B502981D
:102EA00000F044F8019B9E4602B00CBC7047C0463F
:102EB0009C460304F0B51B0C17043F0C150C1E1C9C
:102EC000041C000C7E436B4347434543FB18300C06
:102ED0001818874202D980235B02ED18030CED1805
:102EE00063465C434A433604360CA118000480193B
:102EF0004919F0BDF0B583B0161C1F1C009001915C
:102F000000F02EF8041C0D1C221C2B1C301C391C3C
:102F1000FFF7CEFF009A019B121A8B410899201CE3
:102F20000A604B60291C03B0F0BDC046F0B583B009
:102F3000141C1D1C0090019100F0EAF9221C2B1CAE
:102F4000061C0F1CFFF7B4FF009A019B121A8B415D
:102F50000899301C0A604B60391C03B0F0BDC046B4
:102F6000F0B544465F4656464D46F0B41C1C85B04D
:102F7000002900DAD9E00F1C0021061C8A46101C2B
:102F8000191C002C00DAC7E00196009089468046A3
:102F9000002950D1B84262D9FFF74CFF002809D070
:102FA00020234546311C1B1A85408740D940A8463E
:102FB0000F4386404246140C13041B0C211C381C82
:102FC0009B46FFF7E7FE5B464343051C211C381C6C
:102FD0009946FFF723FF330C08041843814509D9AC
:102FE00040446B1E804500D977E1814500D874E1EB
:102FF000023D40444946411A8946081C211CFFF7FE
:10300000C9FE5A464243071C211C48469346FFF717
:1030100005FF36040904360C0E43B34507D9464470
:103020007B1EB04502D8023FB34500D81F1C2D04BB
:103030002F43002403E0B94260D900240027524600
:10304000381C211C002A03D03B1C00215842A141FE
:1030500005B03CBC90469946A246AB46F0BD002860
:1030600004D101200021FFF795FE80464046FFF77E
:10307000E1FE002860D1414644460B043C1B1B0C7A
:10308000A3460D0C00930124291C5846FFF782FE2D
:10309000009F81464743291C5846FFF7BFFE330C6B
:1030A000090419438F4208D94B464144013B8845E6
:1030B00002D88F4200D925E19946C91B8B46081CCE
:1030C000291CFFF767FE009B291C4343071C584639
:1030D0000093FFF7A3FE3604009D0904360C0E434F
:1030E000B54207D946447B1EB04502D8023FB542DF
:1030F00000D81F1C49460B041F43A0E7081CFFF71C
:1031000099FE041E70D1B94503D3009C019DAC42C9
:1031100093D80024012792E75246D243031C0C1C8B
:10312000924600215842A1412EE7002746428F4196
:10313000012149428A4622E720231B1A4246351CB8
:1031400082403C1CDD40DC4087402B1C150C3B437F
:10315000291C8640201C009317049046FFF71AFE96
:103160003F0C011C794381468B46201C291CFFF72C
:1031700055FE009C0904230C19438B450CD94B4682
:103180004144013B884500D9BAE08B4500D8B7E0FF
:1031900002225242914441445C460C1B201C291CD3
:1031A0000194FFF7F7FD391C4143041C8B4601983D
:1031B000291CFFF733FE009A090413041B0C194362
:1031C0008B4509D94144631E884500D994E08B455D
:1031D00000D891E0023C41445B46CB1A49469B46ED
:1031E0000B041C4300974FE7009D20231B1A4A46FF
:1031F00000998240DD40154381403A1CDA4000913D
:10320000311C9046D9403A1C82400B1C1343019359
:103210002F0C2B041B0C391C40460293FFF7BAFD00
:10322000029A81464243391C40469346FFF7F6FD19
:10323000019A0904130C19438B450AD94B464919C5
:10324000013B8D425AD88B4558D902235B429944A1
:1032500049195A468A1A101C391C0392FFF79AFD25
:10326000029B80464343391C03989B46FFF7D6FDDB
:10327000019A090413041B0C19438B450AD94346D0
:103280004919013B8D4235D88B4533D902235B4226
:10329000984449195D464D1BAB464946009D0F04B5
:1032A000424617432A04120C3B042D0C1B0C380C0D
:1032B000111C594342436B436843D3180D0C5B19EF
:1032C0008C469A4202D98022520280181D0C401965
:1032D00083450CD303D00024B1E61D1C8AE6654665
:1032E0002A041B04120C9B18A6409E42F3D2013FF5
:1032F0000024A4E69846CDE71C1C6DE79946A8E794
:10330000994649E70222524291444144D5E6C046DB
:10331000F0B55F4656464D464446F0B40D1C85B0A8
:10332000061C924698460290019103921F1C141CA1
:103330008346A946002B52D1AA426BD9101CFFF735
:1033400079FD00280AD020231B1A311CD940854062
:103350000B1C2B43864084409946B346250C23041E
:103360001B0C291C48469846FFF714FD4646071CCF
:103370004643291C4846FFF751FD5A460904130CE1
:1033800019438E4209D909197B1E8C4200D959E193
:103390008E4200D856E1023F0919891B8946081C54
:1033A000291CFFF7F7FC43464343061C291C4846EB
:1033B0009846FFF733FD5A46130409041B0C1943C2
:1033C000884508D90919731E8C4200D938E1023E9C
:1033D000884500D834E138043043002712E0019AD0
:1033E00093420DD8181CFFF725FD041E66D1019BE2
:1033F0009F4200D221E1039F02998F4200D81CE135
:1034000000270020391C05B03CBC90469946A246D6
:10341000AB46F0BD002A04D101200021FFF7BAFC21
:10342000041C201CFFF706FD002800D0B6E0230492
:103430002D1B1B0CA946260C98460127311C48461B
:10344000FFF7A8FC41464143051C8A464846311C0B
:10345000FFF7E4FC5A460804130C1843824507D9C9
:1034600000196B1E844202D8824500D90DE11D1C53
:103470005346C31A181C311C9A46FFF78BFC414671
:103480004143814688465046311CFFF7C7FC5A46E7
:10349000130409041B0C194388450BD94B46091921
:1034A000013B8C4200D9CFE0884500D8CCE0022314
:1034B0005B429944280449460843A3E720231B1A8A
:1034C000424657468240DF401743524682400192AF
:1034D000321CDA40291CD9408540131C2B4302932F
:1034E0003D0C3B041B0C8846081C291C9A46FFF720
:1034F00051FC534643438146291C40469B46FFF7F7
:103500008DFC029A0904130C19438B4506D94B46CE
:10351000C919013B8F4200D8ABE099465A468A1A36
:10352000101C291C9346FFF735FC53464343291CC6
:10353000804658469A46FFF771FC029A0904150422
:103540002D0C29438A4506D94346C919013B8F42B0
:1035500000D886E098465746CF1BBA464946019F99
:103560000804424610433D042D0C03043F0C1B0C81
:10357000020C291C594355437B437A43EB180F0C2B
:10358000DB198C469D4202D980277F02D2191D0C7F
:103590005219924562D359D0002733E720231B1AD2
:1035A000311C2F1CD940DF4085400B1C84402B432D
:1035B00086400193B3462304260C1B0C381C311C97
:1035C0009846FFF7E7FB42464243051C311C381C76
:1035D0009146FFF723FC019F09043B0C19438945E1
:1035E00007D909196B1E8C424DD889454BD9023D2C
:1035F00009194A468A1A101C311C9246FFF7CAFB69
:1036000043464343071C311C50469946FFF706FCCE
:10361000019A090413041B0C1943894507D9091998
:103620007B1E8C422DD889452BD9023F09194B4668
:10363000CB1A2D0499462F4300E700270120E1E62D
:103640001E1CC8E61F1CA8E6994633E761460A041B
:103650001B04120C9B18A6409E429DD201380027E5
:10366000D0E68A4500D875E702235B429844C91921
:1036700071E78B4500D850E702235B429944C91992
:103680004CE71F1CD3E71D1CB3E7023D0019EFE612
:10369000084B10B5041C002B02D0002100E000BF35
:1036A000054B1868836A002B00D09847201CFEF752
:1036B0002BFAC04600000000984D0000134B70B577
:1036C0001D68041C1E1C002D05D0AA69002A02D109
:1036D000281C00F077F80E4B9C4201D16C6808E082
:1036E0000C4B9C4201D1AC6803E00B4B9C4200D1D7
:1036F000EC680C22A35E002B02D00E23E05E04E0F7
:103700003368092201201A60404270BDC8000020C1
:10371000344D0000544D0000744D0000F8B5041CF9
:10372000071C4834002C12D0A5686668013E0CD4F2
:10373000AB89012B07D90E22AB5E013303D0381CB5
:10374000291C00F0EDFD6835F0E72468EAE7F8BDD4
:10375000002310B5041C03604360836081814366CD
:10376000C281036143618361191C08225C3000F04F
:10377000C8F8054B24626362044BA362044BE36206
:10378000044B236310BDC046153A00003D3A0000CB
:10379000753A0000A13A000070B54B1E68255D43E4
:1037A0000E1C291C743100F0B5F8041E08D000214D
:1037B000016046602A1C0C30A060683200F0A1F85D
:1037C000201C70BD836913B5041C002B27D18364B2
:1037D000C3640365124B134A1B688262984201D18D
:1037E00001238361201C00F01FF86060201C00F0A2
:1037F0001BF8A060201C00F017F80421E0600022F4
:103800006068FFF7A5FFA06809210122FFF7A0FF6C
:10381000E06812210222FFF79BFF0123A36113BD81
:10382000984D00001D370000F8B51D4B071C1E68A1
:10383000B269002A02D1301CFFF7C4FF4836B468D1
:103840007368013B05D40C22A55E002D10D06834AE
:10385000F7E73368002B06D1381C0421FFF79CFFE3
:103860003060002801D03668E9E70C233B6016E0A1
:1038700001235B42E381201C0123A381656625604F
:10388000A560656025616561A5615C30291C082221
:1038900000F037F86563A563A564E564201CF8BDF6
:1038A000984D000070B50E4B0E4D0024ED1AAD1072
:1038B0001E1CAC4204D0A300F35898470134F8E72B
:1038C00000F04AFE084B094D0024ED1AAD101E1CF5
:1038D000AC4204D0A300F35898470134F8E770BD18
:1038E000CC000020CC000020CC000020D000002024
:1038F00010B50023934203D0CC5CC4540133F9E7E4
:1039000010BD031C8218934202D019700133FAE7EC
:103910007047000070B50323CD1C9D430835061C7D
:103920000C2D01D20C2501E0002D3FDB8D423DD353
:10393000204B1C681A1C211C002913D00868431B4B
:103940000DD40B2B02D90B60CC181EE08C4202D197
:10395000636813601AE0486860600C1C16E00C1C79
:103960004968E9E7144C2068002803D1301C00F0B6
:103970003FF82060301C291C00F03AF8431C15D099
:10398000C41C03239C4384420AD12560201C0B30B5
:103990000722231D9043C31A0BD05A42E25008E07D
:1039A000211A301C00F024F80130EED10C233360D2
:1039B000002070BD5C030020580300200FB40B4BA7
:1039C00013B51C68002C05D0A369002B02D1201C64
:1039D000FFF7F8FE05ABA168201C049A019300F0E4
:1039E00093F816BC08BC04B01847C046C8000020B5
:1039F00038B5074C0023051C081C2360FEF7B0F8FF
:103A0000431C03D12368002B00D02B6038BDC04677
:103A10000405002038B50C1C0E25495F00F064FD3C
:103A2000002803DB626D1318636503E0A289024B73
:103A30001340A38138BDC046FFEFFFFFF8B51E1C41
:103A40008B89051C0C1C171CDA0505D50E23C95ED5
:103A50000022022300F090FCA289054B281C134091
:103A6000A3810E22A15E331C3A1C00F037FBF8BD87
:103A7000FFEFFFFF38B50C1C0E25495F00F07CFC02
:103A8000A389421C03D1054A1340A38104E080228C
:103A900052011343A381606538BDC046FFEFFFFFAD
:103AA00008B50E23C95E00F09FFB08BD0023C25C71
:103AB0000133002AFBD1581E7047936810B5013BB3
:103AC0009360002B05DA9469A34208DBCBB20A2B82
:103AD00005D01368581C10601970C8B201E000F0DE
:103AE000A5FA10BDF8B5061C0F1C141CD518AC4265
:103AF00008D02178301C3A1CFFF7DFFF0134431C4B
:103B0000F5D100E00020F8BDF0B59FB0061C0F1CF9
:103B100003920593002804D08169002901D1FFF7A1
:103B200051FE754B9F4201D1776808E0734B9F426D
:103B300001D1B76803E0724B9F4200D1F768BB899F
:103B40001A070AD53B69002B07D006AD00236B612D
:103B500020236B763023AB763BE0301C391C00F021
:103B6000D1FA0028F1D001204042C2E0059A111D8F
:103B700012680591002A76DB0992013423782E2BF6
:103B800000D181E021785F48032200F059FC002831
:103B900007D05C492A68431A4020984010432860A7
:103BA00001342178631C584806220393297600F0DB
:103BB00047FC002800D18AE0544B002B7ED1059BA6
:103BC000072207339343083305936A69049953180E
:103BD0006B61039C2378002B04D10399611A029135
:103BE00010D003E0252BF8D00134F3E7301C391C4A
:103BF000039A029BFFF776FF013075D06A6902993C
:103C000053186B612378002B6ED0012252426A60F8
:103C10006A4600235B3201342B60EB60AB601370AB
:103C2000AB6521783A48052200F00AFC002808D04C
:103C3000374A0134831A012098402B6818432860C2
:103C4000EFE72B68D90603D56A4620215B32117055
:103C50001A0703D56A462B215B32117022782A2A73
:103C600084D0099B05E05242EA60022213432B6094
:103C700083E72278303A092A04D80A214B430134D9
:103C80009B18F6E7099379E763782A2B09D1059BFE
:103C900002341A1D1B680592002B0DDA01235B42CA
:103CA0000AE0013400232278303A092A04D80A2194
:103CB0004B4301349B18F6E7079363E705AB00938A
:103CC000301C291C3A1C134B00E000BF07E005AB79
:103CD0000093301C291C3A1C0E4B00F091F8049004
:103CE0000499013100D070E7BB895A0600D53AE744
:103CF0000B981FB0F0BDC046344D0000544D00007D
:103D0000744D0000A24D0000A64D00000000000010
:103D10009C4D0000E53A0000F7B5151C01930A69B7
:103D20008B68061C0C1C934200DA131C221C2B60AF
:103D300043321278002A01D001332B6020688006BC
:103D400002D52B6802332B60216806270F401FD055
:103D5000231C43331B785A1E9341226892061FD5B9
:103D6000E11840313020C870211C5A1C45310978B7
:103D7000A21840320233D17012E0221C301C01998B
:103D800019320123089FB847013011D0009F013735
:103D90000097E0682968009F431A9F42EDDBD7E750
:103DA000221C301C01994332089FB847013002D1D0
:103DB0000120404223E0206806212B68E268014090
:103DC0000025042903D1D51AEB43DB171D40A26857
:103DD00023699A4201DDD31AED1800270097009F4E
:103DE000AF420BDA221C301C01991A320123089FC2
:103DF000B8470130DCD0009F0137EFE70020FEBD5F
:103E0000F0B58BB007930D1C0B7E433506920590E1
:103E10000C1C109A04956E2B00D1A7E011D8632BCF
:103E200022D009D8002B00D1B0E0582B00D0C0E040
:103E300045310B707B4D4EE0642B1CD0692B1AD0A2
:103E4000B7E0732B00D1A5E009D86F2B29D0702BD8
:103E500000D0AEE00E68202333430B6036E0752BB4
:103E60001FD0782B32D0A4E013680D1C191D4235E9
:103E700011601B689FE0216813680E0603D5191DA9
:103E800011601E6805E04806F9D5191D1160002172
:103E90005E5E644B002E3BDA049D2D2276422A7032
:103EA00036E0216813680E0603D5191D11601E68DF
:103EB00004E04806F9D5191D1E881160594B227E71
:103EC000039308276F2A1ED00A271CE0231C7821A1
:103ED0004533554D197011682368081D039510600E
:103EE0001E0601D50E6802E05806FBD50E88D907DC
:103EF00002D52022134323601027002E03D122680D
:103F000020239A432260231C002243331A7001E0CD
:103F100003930A276368A360002B03DB2568042250
:103F200095432560002E02D1049D002B0ED0049DE8
:103F3000301C391CFEF772FF0398013D435C301CB6
:103F40002B70391CFEF726FF061EF1D1082F09D170
:103F50002168C90706D5626823699A4202DC013DDF
:103F600030232B70049E731B23612AE008681368BA
:103F70004969050604D5181D10601B68196005E025
:103F80004606F8D5181D10601B68198000232361B0
:103F9000049D16E01368191D11601D68281CFFF7A9
:103FA00085FD63682061984200D9236120696060C3
:103FB00004E0251C42352B7001232361049E00235D
:103FC0003370079E05980096211C09AA069BFFF7EF
:103FD000A3FE013002D10120404221E02A1C0598B5
:103FE00006992369079DA8470130F4D02668B607D3
:103FF00005D4099BE068984212DA181C10E00025ED
:10400000E0680999431A9D42F3DA221C0598069943
:1040100019320123079EB0470130DCD00135EFE7AC
:104020000BB0F0BDAD4D0000BE4D000070B5051CDD
:104030000E1C141C002804D08269002A01D1FFF74D
:10404000C1FB234B9C4201D16C6808E0214B9C4290
:1040500001D1AC6803E0204B9C4200D1EC68A3691D
:10406000A360A3891A070AD52369002B07D0226809
:104070002369F6B2D01A626990420FDB08E0281C6F
:10408000211C00F03FF80028F1D0012040421DE043
:10409000281C211C00F044F90028F6D1A368013047
:1040A000013BA36023685A1C22601E70636998421A
:1040B00005D0A389301CDA0708D50A2E06D1281CA2
:1040C000211C00F02DF90028DFD1301C70BDC04646
:1040D000344D0000544D0000744D000038B5084CBC
:1040E000051C00202060081C111C1A1CFDF72AFD6D
:1040F000431C03D12368002B00D02B6038BDC04681
:1041000004050020344B70B51D68061C0C1C002DE6
:1041100005D0A969002902D1281CFFF753FB2F4BBA
:104120009C4201D16C6808E02D4B9C4201D1AC68E7
:1041300003E02C4B9C4200D1EC68A28993B2190792
:1041400021D4D90605D40923336040231A43A28120
:104150003FE05A0713D5616B002908D0231C443374
:10416000994202D0301C00F077F900236363A389E1
:1041700024229343A3810023636023692360A389DE
:1041800008221343A381216900290BD1A389A0220E
:1041900092001A4080239B009A4203D0301C211CBD
:1041A00000F0FEF8A38901221A4005D061690022BF
:1041B000A2604A42A26103E0990700D46269A2604A
:1041C00022690020824206D1190604D540221343F9
:1041D000A3810120404270BDC8000020344D000082
:1041E000544D0000744D000038B5074C0023051CE9
:1041F000081C2360FDF786FC431C03D12368002BB9
:1042000000D02B6038BDC04604050020F7B58B896F
:10421000051C0C1C19075ED46268002A02DC276C9E
:10422000002F1ADDE76A002F17D000222E682A60BF
:10423000802252011A4001D0626D15E0281C216ACB
:104240000123B847021C411C0ED12B68002B0BD058
:104250001D2B01D0162B02D12E6000205EE0A38919
:1042600040210B43A38159E0A3895F0706D561680C
:10427000636B521A002B01D0276CD21B281C216AB9
:104280000023E76AB847A289411C06D12B68002B9E
:1042900003D01D2B01D0162B19D100236360236995
:1042A0002360D70405D5411C02D12A68002A00D119
:1042B0006065616B2E600029CFD0231C4433994286
:1042C00002D0281C00F0C8F80020606326E04023DC
:1042D0001A43A28122E02669002EBED02768002260
:1042E000BF1B01972660990700D16269A260019FF8
:1042F000002FB2DD281C216A321C019BA76AB84737
:10430000002806DCA389402213430120A3814042F8
:1043100004E0019F36183F1A0197E8E7FEBD000050
:104320000A6938B5051C0C1C002A01D100201CE0CC
:10433000002804D08369002B01D1FFF743FA0B4B0F
:104340009C4201D16C6808E0094B9C4201D1AC68E9
:1043500003E0084B9C4200D1EC680C22A35E002BCA
:10436000E4D0281C211CFFF751FF38BD344D00005C
:10437000544D0000744D000038B5084C051C002059
:104380002060081C111C1A1CFDF7C6FB431C03D13E
:104390002368002B00D02B6038BDC04604050020E8
:1043A000F0B58B8991B0051C0C1C9A0725D40E23FF
:1043B000C95E002906DAA78980231F400FD0002795
:1043C00040260EE001AA00F0A3F80028F3DB029BD0
:1043D000F0273F02184A1F40BF187B425F418026EA
:1043E000F600281C311CFFF795FA00280CD1A38990
:1043F0009A051FD402221343A381231C4733236051
:1044000023610123636115E00C4B8022AB62A38919
:1044100020601343A38120616661002F0AD00E2320
:10442000E15E281C00F086F8002803D0A389012251
:104430001343A38111B0F0BD00E0FFFF1D37000062
:10444000C9B28218904204D003788B4202D0013066
:10445000F8E700207047000030B5002940D004394B
:104460000B68002B00DAC9181E4A1368141C002BB5
:1044700002D14B60116033E099420FD208680A18EC
:104480009A4205D113685268C01808604A6000E07B
:104490004B60216024E08A4203D8131C5A68002A2A
:1044A000F9D11D685C198C420BD10968691858183C
:1044B0001960904214D114685268091919605A6041
:1044C0000EE08C4202D90C23036009E008680C1846
:1044D000944203D114685268001908604A60596018
:1044E00030BDC0465C03002038B5084C051C0020D8
:1044F0002060081C111C1A1CFDF710FB431C03D183
:104500002368002B00D02B6038BDC0460405002076
:1045100038B5074C0023051C081C111C2360FDF74F
:10452000F4FA431C03D12368002B00D02B6038BD64
:104530000405002038B5074C0023051C081C236027
:10454000FDF7E8FA431C03D12368002B00D02B6051
:1045500038BDC04604050020F8B5C046F8BC08BC0C
:104560009E467047F8B5C046F8BC08BC9E467047EA
:10457000080421714B0000BA9E080548232E2B9099
:10458000B14E08EA3FB9E88BA9CAD60805D2E5BE04
:10459000D127558208E5562A3B7676964808058E3F
:1045A00026D85D01A78808E289CC637995004B087D
:1045B00005E075CDA4B946BC08EAD337D29A898202
:1045C000EA08050CAE4CF5F63CB308E9A770DFF13C
:1045D000144F040805FE5BDF470A7C5B08E2FB3EE4
:1045E00021A21BAA930805BFFDAB696CA85A08E27B
:1045F00066B72E2C452DFB08050D55BDC237007240
:1046000008E2FF574D7C6C002C08059EF246FDD356
:10461000161B08EA167F674DE5E2C8080537331C0C
:10462000FABBEEEF08EA005FBEA4FCBFC108059527
:10463000122F0ACF558C08E770C2D4F08195C808B4
:10464000E77200F98D1501A308E718E56C511F8684
:104650009F08E7DD37594BADB09C08E7C8E884CD2B
:1046600055418308EF4F8E38CB37028708E7F500B6
:10467000884C0965CE08EFDDBC6562AC756208E761
:10468000C0F15D98B0DD4308E719B4F89F6D8CCB9D
:1046900008E1DE63C232C6E42F0805F433B72E7298
:1046A0009AF908E765D938B8FE311608E7F3062D00
:1046B000F5FE0C3808E7704FE749B4583908EFF1B8
:1046C00046A9233864C008E7094E04D346150208FA
:1046D000EF8DC720C390874D08EF00AB7F2702C640
:1046E000A008E723A6A6A427117D08EFB3F19E6AD0
:1046F000B319AF08E7ABF515785E48F808EF5BB182
:104700002EAF2AFF1608E730625C827A3F8308EFFB
:1047100091A7D31B6485BE08E74D8194E4AAE8DB2A
:1047200008EFA0CC4A23A57E3608EF0C724CFB267E
:104730005AEC08EF0E42FAAF49A0A808E76D12DF65
:104740002B0C615808EAB69BDE81B9FFFF0805040F
:10475000EBD812D68DE008EC29664BDEB7DE3608C2
:10476000050D28B90A89311A0702810001C9C380E1
:1047700005110101000505110101013805110101B3
:1047800002000511010103200511020100010511BC
:1047900002010102051102010209051102010300D3
:1047A0000511240103456B666B7D8DB51FDC80A46C
:1047B00020138371F5AE02407B9C7B6F2C9E881783
:1047C00083FC2EF7285F1499D2B197741E57517449
:1047D0002BBE5D898CD746CEEDCE6951F5156EEABC
:1047E0004BD76CDD52668E8ECCE8145EB47AA4672B
:1047F00020961ED0A663BE93EA11347431C30633EB
:104800005774457890D243C98B27A1DE212734FF06
:104810004A4C01006B66479EA7107345A44233269D
:10482000EBC0030ED2F3E62703DEDAC42A39425482
:104830008920DC4DB42232EE131725B75210EB530A
:104840005973D566B517E390DEAA1C1DC1F9146330
:10485000C35E6CF6ABE589347CB18A336BDB8E5179
:104860003A7789A416A78E5A05C5ADDAC05147DB41
:10487000BC5A73562A00DB6E646ED12C93883806BE
:1048800001000D66742038E22AB841F05A06DD684E
:104890000319623508131D1D20210000000511F0C9
:1048A0000100800511F0010360004552524F523A59
:1048B00020526164696F20636F6E6669677572610B
:1048C00074696F6E206661696C6564210A0000007E
:1048D00008000800000000004865617020616E64F7
:1048E00020737461636B20636F6C6C6973696F6EA6
:1048F0000A000100000000000500000000000000A8
:1049000040420F0005010000000000000000000010
:1049100000040A0A04030606080200000000000062
:104920000E040E1F081F0C1F0E0E00001000010EBB
:104930000E0E0F0E071F1F0E110E1C110111110E6E
:104940000F0E0F1E1F11111111111F0E000E04006A
:104950000200010010000C00010408010600000024
:1049600000000000020000000000000C040600002F
:104970000000000000040A0A1E13090404040404D1
:1049800000000000110611080C01021011110606AA
:104990000800021110111111090101111104080977
:1049A000011B11111111110104111111111110022A
:1049B00000080A00040001001000121E010000019E
:1049C00004000000000000000200000000000002DF
:1049D000040802000000000000040A1F010805028C
:1049E0000208150400000010190410040A0F010841
:1049F00011110606041F041010111101110101010B
:104A000011040805011513111111110104111111DF
:104A10000A11080201081100080E0D0E160E0211EF
:104A20000D060C09040B0D0E0F160D0E07111111BA
:104A300011111F0204081500000000000004000A04
:104A40000E04020002080E1F001F000815040808CB
:104A500009100F040E1E00000200080816110F01B5
:104A6000110F0F1D1F040803011515110F110F0E53
:104A700004111115040A04020208000000101301B9
:104A80001911071113040805041513111119130145
:104A9000021111110A1108010410080000000000A1
:104AA0000000001F10021500020815040600000493
:104AB000130404101F10110211100606041F040431
:104AC000151F11011101011111040805011119111E
:104AD00001150510041111150A0402020408000052
:104AE000001E1101111F021E1104080304151111EB
:104AF0000F1E010E02111115041E0402040800000D
:104B0000000000000000000A0F190900040404045A
:104B10000400060211040211081111021108060412
:104B200008000200151111110901011111040909F0
:104B3000011111110109091004110A1511040102D2
:104B400008080000001111111101021011040905DB
:104B5000041111110110011012190A150A10020294
:104B600004080000000000000004000A04181600F9
:104B700008020000020006010E0E1F0E080E0E02B3
:104B80000E060002100001040E110F0E071F010E89
:104B9000110E06111F11110E0116110F040E040A39
:104BA00011041F0E100E001F001E0F0E1E0E020E0F
:104BB000110E06090E11110E0110010F0C16040A38
:104BC000110E1F0C04060000000000000000000091
:104BD00000000000000000000000000000000000D5
:104BE00000000000000000000000000000000000C5
:104BF00000000000000000000000000000000000B5
:104C000000000000000000000000000000000000A4
:104C10000000000000000000000000000000000094
:104C20000000000000000000000000000000000084
:104C3000002020202020202020202828282828206C
:104C40002020202020202020202020202020202064
:104C500020881010101010101010101010101010CC
:104C600010040404040404040404041010101010BC
:104C70001010414141414141010101010101010186
:104C800001010101010101010101010110101010D8
:104C90001010424242424242020202020202020258
:104CA00002020202020202020202020210101010AC
:104CB00020000000000000000000000000000000D4
:104CC00000000000000000000000000000000000E4
:104CD00000000000000000000000000000000000D4
:104CE00000000000000000000000000000000000C4
:104CF00000000000000000000000000000000000B4
:104D000000000000000000000000000000000000A3
:104D10000000000000000000000000000000000093
:104D20000000000000000000000000000000000083
:104D30000000000000000000000000000000000073
:104D40000000000000000000000000000000000063
:104D50000000000000000000000000000000000053
:104D60000000000000000000000000000000000043
:104D70000000000000000000000000000000000033
:104D80000000000000000000000000000000000023
:104D9000000000004300000068000020232D302B9D
:104DA0002000686C4C00656667454647003031322C
:104DB0003334353637383941424344454600303183
:104DC00032333435363738396162636465660000E2
:044DD00000000000DF
:084DD40020B3FF7F0100000085
:104DDC001234560C9ABCDEF0123456789AC5C5C5FE
:104DEC00C5C5C5C5C5C5C5C5C5C5C5C5C5000000B6
:104DFC0000000000000000000000000000000000A7
:104E0C000000000000000000000000000000000096
:104E1C0000C400400500000040420F0008000000E4
:104E2C0000000000000100000000000000800000F5
:104E3C0000366E01304C000000000000344D0000C4
:104E4C00544D0000744D00000000000000000000F4
:104E5C000000000000000000944D00000000000065
:104E6C000000000000000000000000000000000036
:104E7C000000000000000000000000000000000026
:104E8C000000000000000000000000000000000016
:104E9C00000000000000000068000020BD000000C1
:084EAC00950000000000000069
:0400000300002C517C
:00000001FF
